// Vitest Snapshot v1, https://vitest.dev/guide/snapshot.html

exports[`findSubProposals > should find arbitrum proposals 1`] = `
[
  {
    "absolute_position": 38016,
    "block_timestamp": "0001-01-01T00:00:00Z",
    "call_type": "CALL",
    "caller": {
      "address": "0xee56e2b3d491590b5b31738cc34d5232f378a8d5",
      "balance": "42550324015376800",
    },
    "caller_op": "CALL",
    "caller_pc": 646,
    "calls": [
      {
        "absolute_position": 35976,
        "block_timestamp": "0001-01-01T00:00:00Z",
        "call_type": "JUMPDEST",
        "caller": {
          "address": "0xee56e2b3d491590b5b31738cc34d5232f378a8d5",
          "balance": "42550324015376800",
        },
        "caller_code_length": 11,
        "caller_code_start": 2619,
        "caller_file_index": 0,
        "caller_line_number": 64,
        "caller_op": "JUMP",
        "caller_pc": 100,
        "calls": [
          {
            "absolute_position": 35980,
            "block_timestamp": "0001-01-01T00:00:00Z",
            "call_type": "JUMPDEST",
            "caller": {
              "address": "0xee56e2b3d491590b5b31738cc34d5232f378a8d5",
              "balance": "42550324015376800",
            },
            "caller_code_length": 17,
            "caller_code_start": 2313,
            "caller_file_index": 0,
            "caller_line_number": 55,
            "caller_op": "JUMP",
            "caller_pc": 408,
            "calls": [
              {
                "absolute_position": 35984,
                "block_timestamp": "0001-01-01T00:00:00Z",
                "call_type": "JUMPDEST",
                "caller": {
                  "address": "0xee56e2b3d491590b5b31738cc34d5232f378a8d5",
                  "balance": "42550324015376800",
                },
                "caller_code_length": 8,
                "caller_code_start": 6009,
                "caller_file_index": 1,
                "caller_line_number": 148,
                "caller_op": "JUMP",
                "caller_pc": 957,
                "calls": null,
                "contract_name": "TransparentUpgradeableProxy",
                "decoded_output": [
                  {
                    "soltype": {
                      "components": null,
                      "index": "0x0000000000000000000000000000000000000000000000000000000000000000",
                      "indexed": false,
                      "name": "adm",
                      "offset": 0,
                      "simple_type": {
                        "type": "address",
                      },
                      "storage_location": "default",
                      "type": "address",
                    },
                    "value": "0x554723262467f125ac9e1cdfa9ce15cc53822dbd",
                  },
                ],
                "from": "0x4dbd4fc535ac27206064b68ffcf827b0a60bab3f",
                "from_balance": null,
                "function_code_length": 221,
                "function_code_start": 5291,
                "function_file_index": 1,
                "function_line_number": 124,
                "function_name": "_admin",
                "function_op": "JUMPDEST",
                "function_pc": 1119,
                "gas": 719528,
                "gas_used": 115,
                "hash": "",
                "input": "0x",
                "network_id": "",
                "output": "0x",
                "to": "0x4dbd4fc535ac27206064b68ffcf827b0a60bab3f",
                "to_balance": null,
                "value": null,
              },
            ],
            "contract_name": "TransparentUpgradeableProxy",
            "decoded_output": [],
            "from": "0x4dbd4fc535ac27206064b68ffcf827b0a60bab3f",
            "from_balance": null,
            "function_code_length": 204,
            "function_code_start": 5924,
            "function_file_index": 1,
            "function_line_number": 147,
            "function_name": "_beforeFallback",
            "function_op": "JUMPDEST",
            "function_pc": 950,
            "gas": 719543,
            "gas_used": 221,
            "hash": "",
            "input": "0x",
            "network_id": "",
            "output": "0x",
            "to": "0x4dbd4fc535ac27206064b68ffcf827b0a60bab3f",
            "to_balance": null,
            "value": null,
          },
          {
            "absolute_position": 36020,
            "block_timestamp": "0001-01-01T00:00:00Z",
            "call_type": "JUMPDEST",
            "caller": {
              "address": "0xee56e2b3d491590b5b31738cc34d5232f378a8d5",
              "balance": "42550324015376800",
            },
            "caller_code_length": 17,
            "caller_code_start": 2350,
            "caller_file_index": 0,
            "caller_line_number": 56,
            "caller_op": "JUMP",
            "caller_pc": 419,
            "calls": null,
            "contract_name": "TransparentUpgradeableProxy",
            "decoded_output": [
              {
                "soltype": {
                  "components": null,
                  "index": "0x0000000000000000000000000000000000000000000000000000000000000000",
                  "indexed": false,
                  "name": "impl",
                  "offset": 0,
                  "simple_type": {
                    "type": "address",
                  },
                  "storage_location": "default",
                  "type": "address",
                },
                "value": "0x5aed5f8a1e3607476f1f81c3d8fe126deb0afe94",
              },
            ],
            "from": "0x4dbd4fc535ac27206064b68ffcf827b0a60bab3f",
            "from_balance": null,
            "function_code_length": 250,
            "function_code_start": 1872,
            "function_file_index": 2,
            "function_line_number": 47,
            "function_name": "_implementation",
            "function_op": "JUMPDEST",
            "function_pc": 1046,
            "gas": 719304,
            "gas_used": 115,
            "hash": "",
            "input": "0x",
            "network_id": "",
            "output": "0x",
            "to": "0x4dbd4fc535ac27206064b68ffcf827b0a60bab3f",
            "to_balance": null,
            "value": null,
          },
          {
            "absolute_position": 36028,
            "block_timestamp": "0001-01-01T00:00:00Z",
            "call_type": "JUMPDEST",
            "caller": {
              "address": "0xee56e2b3d491590b5b31738cc34d5232f378a8d5",
              "balance": "42550324015376800",
            },
            "caller_code_length": 28,
            "caller_code_start": 2340,
            "caller_file_index": 0,
            "caller_line_number": 56,
            "caller_op": "JUMP",
            "caller_pc": 424,
            "calls": [
              {
                "absolute_position": 38004,
                "block_timestamp": "0001-01-01T00:00:00Z",
                "call_type": "DELEGATECALL",
                "caller": {
                  "address": "0xee56e2b3d491590b5b31738cc34d5232f378a8d5",
                  "balance": "42550324015376800",
                },
                "caller_code_length": 5,
                "caller_code_start": 1454,
                "caller_file_index": 0,
                "caller_line_number": 31,
                "caller_op": "DELEGATECALL",
                "caller_pc": 1097,
                "calls": [
                  {
                    "absolute_position": 36358,
                    "block_timestamp": "0001-01-01T00:00:00Z",
                    "call_type": "JUMPDEST",
                    "caller": {
                      "address": "0xee56e2b3d491590b5b31738cc34d5232f378a8d5",
                      "balance": "42550324015376800",
                    },
                    "caller_code_length": 59,
                    "caller_code_start": 17756,
                    "caller_file_index": 9,
                    "caller_line_number": 507,
                    "caller_op": "JUMP",
                    "caller_pc": 4719,
                    "calls": null,
                    "contract_name": "Inbox",
                    "decoded_input": [
                      {
                        "soltype": {
                          "components": null,
                          "index": "0x0000000000000000000000000000000000000000000000000000000000000000",
                          "indexed": false,
                          "name": "dataLength",
                          "offset": 0,
                          "simple_type": {
                            "type": "uint",
                          },
                          "storage_location": "default",
                          "type": "uint256",
                        },
                        "value": "580",
                      },
                      {
                        "soltype": {
                          "components": null,
                          "index": "0x0000000000000000000000000000000000000000000000000000000000000000",
                          "indexed": false,
                          "name": "baseFee",
                          "offset": 0,
                          "simple_type": {
                            "type": "uint",
                          },
                          "storage_location": "default",
                          "type": "uint256",
                        },
                        "value": "39166194651",
                      },
                    ],
                    "decoded_output": [
                      {
                        "soltype": {
                          "components": null,
                          "index": "0x0000000000000000000000000000000000000000000000000000000000000000",
                          "indexed": false,
                          "name": "",
                          "offset": 0,
                          "simple_type": {
                            "type": "uint",
                          },
                          "storage_location": "default",
                          "type": "uint256",
                        },
                        "value": "191131029896880",
                      },
                    ],
                    "from": "0x5aed5f8a1e3607476f1f81c3d8fe126deb0afe94",
                    "from_balance": null,
                    "function_code_length": 289,
                    "function_code_start": 11762,
                    "function_file_index": 9,
                    "function_line_number": 361,
                    "function_name": "calculateRetryableSubmissionFee",
                    "function_op": "JUMPDEST",
                    "function_pc": 5669,
                    "gas": 702375,
                    "gas_used": 312,
                    "hash": "",
                    "input": "0x",
                    "network_id": "",
                    "output": "0x",
                    "to": "0x5aed5f8a1e3607476f1f81c3d8fe126deb0afe94",
                    "to_balance": null,
                    "value": null,
                  },
                  {
                    "absolute_position": 36602,
                    "block_timestamp": "0001-01-01T00:00:00Z",
                    "call_type": "JUMPDEST",
                    "caller": {
                      "address": "0xee56e2b3d491590b5b31738cc34d5232f378a8d5",
                      "balance": "42550324015376800",
                    },
                    "caller_code_length": 476,
                    "caller_code_start": 10085,
                    "caller_file_index": 9,
                    "caller_line_number": 312,
                    "caller_op": "JUMP",
                    "caller_pc": 1449,
                    "calls": [
                      {
                        "absolute_position": 36625,
                        "block_timestamp": "0001-01-01T00:00:00Z",
                        "call_type": "JUMPDEST",
                        "caller": {
                          "address": "0xee56e2b3d491590b5b31738cc34d5232f378a8d5",
                          "balance": "42550324015376800",
                        },
                        "caller_code_length": 56,
                        "caller_code_start": 22364,
                        "caller_file_index": 9,
                        "caller_line_number": 615,
                        "caller_op": "JUMP",
                        "caller_pc": 7637,
                        "calls": [
                          {
                            "absolute_position": 37292,
                            "block_timestamp": "0001-01-01T00:00:00Z",
                            "call_type": "CALL",
                            "caller": {
                              "address": "0x4dbd4fc535ac27206064b68ffcf827b0a60bab3f",
                              "balance": "0",
                            },
                            "caller_code_length": 176,
                            "caller_code_start": 22678,
                            "caller_file_index": 9,
                            "caller_line_number": 626,
                            "caller_op": "CALL",
                            "caller_pc": 7835,
                            "calls": [
                              {
                                "absolute_position": 36750,
                                "block_timestamp": "0001-01-01T00:00:00Z",
                                "call_type": "JUMPDEST",
                                "caller": {
                                  "address": "0x4dbd4fc535ac27206064b68ffcf827b0a60bab3f",
                                  "balance": "0",
                                },
                                "caller_code_length": 11,
                                "caller_code_start": 2675,
                                "caller_file_index": 3,
                                "caller_line_number": 68,
                                "caller_op": "JUMP",
                                "caller_pc": 100,
                                "calls": [
                                  {
                                    "absolute_position": 36754,
                                    "block_timestamp": "0001-01-01T00:00:00Z",
                                    "call_type": "JUMPDEST",
                                    "caller": {
                                      "address": "0x4dbd4fc535ac27206064b68ffcf827b0a60bab3f",
                                      "balance": "0",
                                    },
                                    "caller_code_length": 17,
                                    "caller_code_start": 2370,
                                    "caller_file_index": 3,
                                    "caller_line_number": 59,
                                    "caller_op": "JUMP",
                                    "caller_pc": 261,
                                    "calls": [
                                      {
                                        "absolute_position": 36758,
                                        "block_timestamp": "0001-01-01T00:00:00Z",
                                        "call_type": "JUMPDEST",
                                        "caller": {
                                          "address": "0x4dbd4fc535ac27206064b68ffcf827b0a60bab3f",
                                          "balance": "0",
                                        },
                                        "caller_code_length": 11,
                                        "caller_code_start": 5066,
                                        "caller_file_index": 5,
                                        "caller_line_number": 122,
                                        "caller_op": "JUMP",
                                        "caller_pc": 674,
                                        "calls": null,
                                        "contract_name": "TransparentUpgradeableProxy",
                                        "decoded_output": [
                                          {
                                            "soltype": {
                                              "components": null,
                                              "index": "0x0000000000000000000000000000000000000000000000000000000000000000",
                                              "indexed": false,
                                              "name": "",
                                              "offset": 0,
                                              "simple_type": {
                                                "type": "address",
                                              },
                                              "storage_location": "default",
                                              "type": "address",
                                            },
                                            "value": "0x554723262467f125ac9e1cdfa9ce15cc53822dbd",
                                          },
                                        ],
                                        "from": "0x8315177ab297ba92a06054ce80a67ed4dbd7ed3a",
                                        "from_balance": null,
                                        "function_code_length": 122,
                                        "function_code_start": 4108,
                                        "function_file_index": 2,
                                        "function_line_number": 116,
                                        "function_name": "_getAdmin",
                                        "function_op": "JUMPDEST",
                                        "function_pc": 872,
                                        "gas": 678476,
                                        "gas_used": 2142,
                                        "hash": "",
                                        "input": "0x",
                                        "network_id": "",
                                        "output": "0x",
                                        "to": "0x8315177ab297ba92a06054ce80a67ed4dbd7ed3a",
                                        "to_balance": null,
                                        "value": null,
                                      },
                                    ],
                                    "contract_name": "TransparentUpgradeableProxy",
                                    "decoded_output": [],
                                    "from": "0x8315177ab297ba92a06054ce80a67ed4dbd7ed3a",
                                    "from_balance": null,
                                    "function_code_length": 207,
                                    "function_code_start": 4981,
                                    "function_file_index": 5,
                                    "function_line_number": 121,
                                    "function_name": "_beforeFallback",
                                    "function_op": "JUMPDEST",
                                    "function_pc": 667,
                                    "gas": 678491,
                                    "gas_used": 2224,
                                    "hash": "",
                                    "input": "0x",
                                    "network_id": "",
                                    "output": "0x",
                                    "to": "0x8315177ab297ba92a06054ce80a67ed4dbd7ed3a",
                                    "to_balance": null,
                                    "value": null,
                                  },
                                  {
                                    "absolute_position": 36798,
                                    "block_timestamp": "0001-01-01T00:00:00Z",
                                    "call_type": "JUMPDEST",
                                    "caller": {
                                      "address": "0x4dbd4fc535ac27206064b68ffcf827b0a60bab3f",
                                      "balance": "0",
                                    },
                                    "caller_code_length": 17,
                                    "caller_code_start": 2407,
                                    "caller_file_index": 3,
                                    "caller_line_number": 60,
                                    "caller_op": "JUMP",
                                    "caller_pc": 272,
                                    "calls": [
                                      {
                                        "absolute_position": 36803,
                                        "block_timestamp": "0001-01-01T00:00:00Z",
                                        "call_type": "JUMPDEST",
                                        "caller": {
                                          "address": "0x4dbd4fc535ac27206064b68ffcf827b0a60bab3f",
                                          "balance": "0",
                                        },
                                        "caller_code_length": 35,
                                        "caller_code_start": 1338,
                                        "caller_file_index": 1,
                                        "caller_line_number": 31,
                                        "caller_op": "JUMP",
                                        "caller_pc": 835,
                                        "calls": null,
                                        "contract_name": "TransparentUpgradeableProxy",
                                        "decoded_output": [
                                          {
                                            "soltype": {
                                              "components": null,
                                              "index": "0x0000000000000000000000000000000000000000000000000000000000000000",
                                              "indexed": false,
                                              "name": "",
                                              "offset": 0,
                                              "simple_type": {
                                                "type": "address",
                                              },
                                              "storage_location": "default",
                                              "type": "address",
                                            },
                                            "value": "0x1066cecc8880948fe55e427e94f1ff221d626591",
                                          },
                                        ],
                                        "from": "0x8315177ab297ba92a06054ce80a67ed4dbd7ed3a",
                                        "from_balance": null,
                                        "function_code_length": 140,
                                        "function_code_start": 1301,
                                        "function_file_index": 2,
                                        "function_line_number": 38,
                                        "function_name": "_getImplementation",
                                        "function_op": "JUMPDEST",
                                        "function_pc": 1269,
                                        "gas": 676231,
                                        "gas_used": 2153,
                                        "hash": "",
                                        "input": "0x",
                                        "network_id": "",
                                        "output": "0x",
                                        "to": "0x8315177ab297ba92a06054ce80a67ed4dbd7ed3a",
                                        "to_balance": null,
                                        "value": null,
                                      },
                                    ],
                                    "contract_name": "TransparentUpgradeableProxy",
                                    "decoded_output": [
                                      {
                                        "soltype": {
                                          "components": null,
                                          "index": "0x0000000000000000000000000000000000000000000000000000000000000000",
                                          "indexed": false,
                                          "name": "impl",
                                          "offset": 0,
                                          "simple_type": {
                                            "type": "address",
                                          },
                                          "storage_location": "default",
                                          "type": "address",
                                        },
                                        "value": "0x1066cecc8880948fe55e427e94f1ff221d626591",
                                      },
                                    ],
                                    "from": "0x8315177ab297ba92a06054ce80a67ed4dbd7ed3a",
                                    "from_balance": null,
                                    "function_code_length": 140,
                                    "function_code_start": 1240,
                                    "function_file_index": 1,
                                    "function_line_number": 30,
                                    "function_name": "_implementation",
                                    "function_op": "JUMPDEST",
                                    "function_pc": 826,
                                    "gas": 676249,
                                    "gas_used": 2188,
                                    "hash": "",
                                    "input": "0x",
                                    "network_id": "",
                                    "output": "0x",
                                    "to": "0x8315177ab297ba92a06054ce80a67ed4dbd7ed3a",
                                    "to_balance": null,
                                    "value": null,
                                  },
                                  {
                                    "absolute_position": 36828,
                                    "block_timestamp": "0001-01-01T00:00:00Z",
                                    "call_type": "JUMPDEST",
                                    "caller": {
                                      "address": "0x4dbd4fc535ac27206064b68ffcf827b0a60bab3f",
                                      "balance": "0",
                                    },
                                    "caller_code_length": 28,
                                    "caller_code_start": 2397,
                                    "caller_file_index": 3,
                                    "caller_line_number": 60,
                                    "caller_op": "JUMP",
                                    "caller_pc": 277,
                                    "calls": [
                                      {
                                        "absolute_position": 37280,
                                        "block_timestamp": "0001-01-01T00:00:00Z",
                                        "call_type": "DELEGATECALL",
                                        "caller": {
                                          "address": "0x4dbd4fc535ac27206064b68ffcf827b0a60bab3f",
                                          "balance": "0",
                                        },
                                        "caller_code_length": 5,
                                        "caller_code_start": 1455,
                                        "caller_file_index": 3,
                                        "caller_line_number": 31,
                                        "caller_op": "DELEGATECALL",
                                        "caller_pc": 850,
                                        "calls": [
                                          {
                                            "absolute_position": 36987,
                                            "block_timestamp": "0001-01-01T00:00:00Z",
                                            "call_type": "JUMPDEST",
                                            "caller": {
                                              "address": "0x4dbd4fc535ac27206064b68ffcf827b0a60bab3f",
                                              "balance": "0",
                                            },
                                            "caller_code_length": 274,
                                            "caller_code_start": 5282,
                                            "caller_file_index": 2,
                                            "caller_line_number": 159,
                                            "caller_op": "JUMP",
                                            "caller_pc": 2678,
                                            "calls": null,
                                            "contract_name": "Bridge",
                                            "decoded_input": [
                                              {
                                                "soltype": {
                                                  "components": null,
                                                  "index": "0x0000000000000000000000000000000000000000000000000000000000000000",
                                                  "indexed": false,
                                                  "name": "kind",
                                                  "offset": 0,
                                                  "simple_type": {
                                                    "type": "uint",
                                                  },
                                                  "storage_location": "default",
                                                  "type": "uint8",
                                                },
                                                "value": 9,
                                              },
                                              {
                                                "soltype": {
                                                  "components": null,
                                                  "index": "0x0000000000000000000000000000000000000000000000000000000000000000",
                                                  "indexed": false,
                                                  "name": "sender",
                                                  "offset": 0,
                                                  "simple_type": {
                                                    "type": "address",
                                                  },
                                                  "storage_location": "default",
                                                  "type": "address",
                                                },
                                                "value": "0xff67e2b3d491590b5b31738cc34d5232f378b9e6",
                                              },
                                              {
                                                "soltype": {
                                                  "components": null,
                                                  "index": "0x0000000000000000000000000000000000000000000000000000000000000000",
                                                  "indexed": false,
                                                  "name": "blockNumber",
                                                  "offset": 0,
                                                  "simple_type": {
                                                    "type": "uint",
                                                  },
                                                  "storage_location": "default",
                                                  "type": "uint64",
                                                },
                                                "value": 17249585,
                                              },
                                              {
                                                "soltype": {
                                                  "components": null,
                                                  "index": "0x0000000000000000000000000000000000000000000000000000000000000000",
                                                  "indexed": false,
                                                  "name": "blockTimestamp",
                                                  "offset": 0,
                                                  "simple_type": {
                                                    "type": "uint",
                                                  },
                                                  "storage_location": "default",
                                                  "type": "uint64",
                                                },
                                                "value": 1683962975,
                                              },
                                              {
                                                "soltype": {
                                                  "components": null,
                                                  "index": "0x0000000000000000000000000000000000000000000000000000000000000000",
                                                  "indexed": false,
                                                  "name": "baseFeeL1",
                                                  "offset": 0,
                                                  "simple_type": {
                                                    "type": "uint",
                                                  },
                                                  "storage_location": "default",
                                                  "type": "uint256",
                                                },
                                                "value": "39166194651",
                                              },
                                              {
                                                "soltype": {
                                                  "components": null,
                                                  "index": "0x0000000000000000000000000000000000000000000000000000000000000000",
                                                  "indexed": false,
                                                  "name": "messageDataHash",
                                                  "offset": 0,
                                                  "simple_type": {
                                                    "type": "bytes",
                                                  },
                                                  "storage_location": "default",
                                                  "type": "bytes32",
                                                },
                                                "value": "0xe4da4974bf1d6d0282387ff0cffd20c8742a8b53fde6ddb5821004a866f92457",
                                              },
                                            ],
                                            "decoded_output": [
                                              {
                                                "soltype": {
                                                  "components": null,
                                                  "index": "0x0000000000000000000000000000000000000000000000000000000000000000",
                                                  "indexed": false,
                                                  "name": "",
                                                  "offset": 0,
                                                  "simple_type": {
                                                    "type": "uint",
                                                  },
                                                  "storage_location": "default",
                                                  "type": "uint256",
                                                },
                                                "value": "846838",
                                              },
                                            ],
                                            "from": "0x1066cecc8880948fe55e427e94f1ff221d626591",
                                            "from_balance": null,
                                            "function_code_length": 962,
                                            "function_code_start": 5569,
                                            "function_file_index": 2,
                                            "function_line_number": 169,
                                            "function_name": "addMessageToDelayedAccumulator",
                                            "function_op": "JUMPDEST",
                                            "function_pc": 4541,
                                            "function_variables": [
                                              {
                                                "soltype": {
                                                  "components": null,
                                                  "index": "0x0000000000000000000000000000000000000000000000000000000000000000",
                                                  "indexed": false,
                                                  "name": "prevAcc",
                                                  "offset": 0,
                                                  "simple_type": {
                                                    "type": "bytes",
                                                  },
                                                  "storage_location": "default",
                                                  "type": "bytes32",
                                                },
                                                "value": "0xd857f9d9125050400bfba52e7dda7c9971693b967ca6a9ba4fadaa6a94c90458",
                                              },
                                            ],
                                            "gas": 658256,
                                            "gas_used": 33411,
                                            "hash": "",
                                            "input": "0x",
                                            "network_id": "",
                                            "output": "0x",
                                            "to": "0x1066cecc8880948fe55e427e94f1ff221d626591",
                                            "to_balance": null,
                                            "value": null,
                                          },
                                        ],
                                        "contract_name": "TransparentUpgradeableProxy",
                                        "decoded_input": [
                                          {
                                            "soltype": {
                                              "components": null,
                                              "index": "0x0000000000000000000000000000000000000000000000000000000000000000",
                                              "indexed": false,
                                              "name": "kind",
                                              "offset": 0,
                                              "simple_type": {
                                                "type": "uint",
                                              },
                                              "storage_location": "default",
                                              "type": "uint8",
                                            },
                                            "value": 9,
                                          },
                                          {
                                            "soltype": {
                                              "components": null,
                                              "index": "0x0000000000000000000000000000000000000000000000000000000000000000",
                                              "indexed": false,
                                              "name": "sender",
                                              "offset": 0,
                                              "simple_type": {
                                                "type": "address",
                                              },
                                              "storage_location": "default",
                                              "type": "address",
                                            },
                                            "value": "0xff67e2b3d491590b5b31738cc34d5232f378b9e6",
                                          },
                                          {
                                            "soltype": {
                                              "components": null,
                                              "index": "0x0000000000000000000000000000000000000000000000000000000000000000",
                                              "indexed": false,
                                              "name": "messageDataHash",
                                              "offset": 0,
                                              "simple_type": {
                                                "type": "bytes",
                                              },
                                              "storage_location": "default",
                                              "type": "bytes32",
                                            },
                                            "value": "0xe4da4974bf1d6d0282387ff0cffd20c8742a8b53fde6ddb5821004a866f92457",
                                          },
                                        ],
                                        "decoded_output": [
                                          {
                                            "soltype": {
                                              "components": null,
                                              "index": "0x0000000000000000000000000000000000000000000000000000000000000000",
                                              "indexed": false,
                                              "name": "",
                                              "offset": 0,
                                              "simple_type": {
                                                "type": "uint",
                                              },
                                              "storage_location": "default",
                                              "type": "uint256",
                                            },
                                            "value": "846838",
                                          },
                                        ],
                                        "from": "0x8315177ab297ba92a06054ce80a67ed4dbd7ed3a",
                                        "from_balance": "1084917988814559712841897",
                                        "function_code_length": 554,
                                        "function_code_start": 5009,
                                        "function_file_index": 2,
                                        "function_line_number": 152,
                                        "function_name": "enqueueDelayedMessage",
                                        "function_op": "JUMPDEST",
                                        "function_pc": 2612,
                                        "gas": 660916,
                                        "gas_used": 36135,
                                        "hash": "",
                                        "input": "0x8db5993b0000000000000000000000000000000000000000000000000000000000000009000000000000000000000000ff67e2b3d491590b5b31738cc34d5232f378b9e6e4da4974bf1d6d0282387ff0cffd20c8742a8b53fde6ddb5821004a866f92457",
                                        "network_id": "",
                                        "output": "0x00000000000000000000000000000000000000000000000000000000000cebf6",
                                        "refund_gas": 10490,
                                        "to": "0x1066cecc8880948fe55e427e94f1ff221d626591",
                                        "to_balance": "0",
                                        "value": null,
                                      },
                                    ],
                                    "contract_name": "TransparentUpgradeableProxy",
                                    "decoded_input": [
                                      {
                                        "soltype": {
                                          "components": null,
                                          "index": "0x0000000000000000000000000000000000000000000000000000000000000000",
                                          "indexed": false,
                                          "name": "implementation",
                                          "offset": 0,
                                          "simple_type": {
                                            "type": "address",
                                          },
                                          "storage_location": "default",
                                          "type": "address",
                                        },
                                        "value": "0x1066cecc8880948fe55e427e94f1ff221d626591",
                                      },
                                    ],
                                    "decoded_output": null,
                                    "from": "0x8315177ab297ba92a06054ce80a67ed4dbd7ed3a",
                                    "from_balance": null,
                                    "function_code_length": 895,
                                    "function_code_start": 948,
                                    "function_file_index": 3,
                                    "function_line_number": 22,
                                    "function_name": "_delegate",
                                    "function_op": "JUMPDEST",
                                    "function_pc": 836,
                                    "gas": 674049,
                                    "gas_used": 38819,
                                    "hash": "",
                                    "input": "0x",
                                    "network_id": "",
                                    "output": "0x",
                                    "to": "0x8315177ab297ba92a06054ce80a67ed4dbd7ed3a",
                                    "to_balance": null,
                                    "value": null,
                                  },
                                ],
                                "contract_name": "TransparentUpgradeableProxy",
                                "decoded_output": null,
                                "from": "0x8315177ab297ba92a06054ce80a67ed4dbd7ed3a",
                                "from_balance": null,
                                "function_code_length": 110,
                                "function_code_start": 2322,
                                "function_file_index": 3,
                                "function_line_number": 58,
                                "function_name": "_fallback",
                                "function_op": "JUMPDEST",
                                "function_pc": 254,
                                "gas": 678506,
                                "gas_used": 43276,
                                "hash": "",
                                "input": "0x",
                                "network_id": "",
                                "output": "0x",
                                "to": "0x8315177ab297ba92a06054ce80a67ed4dbd7ed3a",
                                "to_balance": null,
                                "value": null,
                              },
                            ],
                            "contract_name": "Inbox",
                            "decoded_input": [
                              {
                                "soltype": {
                                  "components": null,
                                  "index": "0x0000000000000000000000000000000000000000000000000000000000000000",
                                  "indexed": false,
                                  "name": "kind",
                                  "offset": 0,
                                  "simple_type": {
                                    "type": "uint",
                                  },
                                  "storage_location": "default",
                                  "type": "uint8",
                                },
                                "value": 9,
                              },
                              {
                                "soltype": {
                                  "components": null,
                                  "index": "0x0000000000000000000000000000000000000000000000000000000000000000",
                                  "indexed": false,
                                  "name": "sender",
                                  "offset": 0,
                                  "simple_type": {
                                    "type": "address",
                                  },
                                  "storage_location": "default",
                                  "type": "address",
                                },
                                "value": "0xff67e2b3d491590b5b31738cc34d5232f378b9e6",
                              },
                              {
                                "soltype": {
                                  "components": null,
                                  "index": "0x0000000000000000000000000000000000000000000000000000000000000000",
                                  "indexed": false,
                                  "name": "messageDataHash",
                                  "offset": 0,
                                  "simple_type": {
                                    "type": "bytes",
                                  },
                                  "storage_location": "default",
                                  "type": "bytes32",
                                },
                                "value": "0xe4da4974bf1d6d0282387ff0cffd20c8742a8b53fde6ddb5821004a866f92457",
                              },
                            ],
                            "decoded_output": null,
                            "from": "0x5aed5f8a1e3607476f1f81c3d8fe126deb0afe94",
                            "from_balance": "0",
                            "function_code_length": 3556,
                            "function_code_start": 1634,
                            "function_file_index": 5,
                            "function_line_number": 29,
                            "function_name": "enqueueDelayedMessage",
                            "function_op": "JUMPDEST",
                            "function_pc": 93,
                            "gas": 678693,
                            "gas_used": 43463,
                            "hash": "",
                            "input": "0x8db5993b0000000000000000000000000000000000000000000000000000000000000009000000000000000000000000ff67e2b3d491590b5b31738cc34d5232f378b9e6e4da4974bf1d6d0282387ff0cffd20c8742a8b53fde6ddb5821004a866f92457",
                            "network_id": "",
                            "output": "0x00000000000000000000000000000000000000000000000000000000000cebf6",
                            "refund_gas": 10736,
                            "to": "0x8315177ab297ba92a06054ce80a67ed4dbd7ed3a",
                            "to_balance": "1084917988124628682945017",
                            "value": "689931029896880",
                          },
                        ],
                        "contract_name": "Inbox",
                        "decoded_input": [
                          {
                            "soltype": {
                              "components": null,
                              "index": "0x0000000000000000000000000000000000000000000000000000000000000000",
                              "indexed": false,
                              "name": "kind",
                              "offset": 0,
                              "simple_type": {
                                "type": "uint",
                              },
                              "storage_location": "default",
                              "type": "uint8",
                            },
                            "value": 9,
                          },
                          {
                            "soltype": {
                              "components": null,
                              "index": "0x0000000000000000000000000000000000000000000000000000000000000000",
                              "indexed": false,
                              "name": "sender",
                              "offset": 0,
                              "simple_type": {
                                "type": "address",
                              },
                              "storage_location": "default",
                              "type": "address",
                            },
                            "value": "0xee56e2b3d491590b5b31738cc34d5232f378a8d5",
                          },
                          {
                            "soltype": {
                              "components": null,
                              "index": "0x0000000000000000000000000000000000000000000000000000000000000000",
                              "indexed": false,
                              "name": "messageDataHash",
                              "offset": 0,
                              "simple_type": {
                                "type": "bytes",
                              },
                              "storage_location": "default",
                              "type": "bytes32",
                            },
                            "value": "0xe4da4974bf1d6d0282387ff0cffd20c8742a8b53fde6ddb5821004a866f92457",
                          },
                        ],
                        "decoded_output": [
                          {
                            "soltype": {
                              "components": null,
                              "index": "0x0000000000000000000000000000000000000000000000000000000000000000",
                              "indexed": false,
                              "name": "",
                              "offset": 0,
                              "simple_type": {
                                "type": "uint",
                              },
                              "storage_location": "default",
                              "type": "uint256",
                            },
                            "value": "846838",
                          },
                        ],
                        "from": "0x5aed5f8a1e3607476f1f81c3d8fe126deb0afe94",
                        "from_balance": null,
                        "function_code_length": 347,
                        "function_code_start": 22514,
                        "function_file_index": 9,
                        "function_line_number": 620,
                        "function_name": "deliverToBridge",
                        "function_op": "JUMPDEST",
                        "function_pc": 7719,
                        "gas": 701172,
                        "gas_used": 55391,
                        "hash": "",
                        "input": "0x",
                        "network_id": "",
                        "output": "0x",
                        "to": "0x5aed5f8a1e3607476f1f81c3d8fe126deb0afe94",
                        "to_balance": null,
                        "value": null,
                      },
                    ],
                    "contract_name": "Inbox",
                    "decoded_input": [
                      {
                        "soltype": {
                          "components": null,
                          "index": "0x0000000000000000000000000000000000000000000000000000000000000000",
                          "indexed": false,
                          "name": "_kind",
                          "offset": 0,
                          "simple_type": {
                            "type": "uint",
                          },
                          "storage_location": "default",
                          "type": "uint8",
                        },
                        "value": 9,
                      },
                      {
                        "soltype": {
                          "components": null,
                          "index": "0x0000000000000000000000000000000000000000000000000000000000000000",
                          "indexed": false,
                          "name": "_sender",
                          "offset": 0,
                          "simple_type": {
                            "type": "address",
                          },
                          "storage_location": "default",
                          "type": "address",
                        },
                        "value": "0xee56e2b3d491590b5b31738cc34d5232f378a8d5",
                      },
                      {
                        "soltype": {
                          "components": null,
                          "index": "0x0000000000000000000000000000000000000000000000000000000000000000",
                          "indexed": false,
                          "name": "_messageData",
                          "offset": 0,
                          "simple_type": {
                            "type": "bytes",
                          },
                          "storage_location": "memory",
                          "type": "bytes",
                        },
                        "value": "0x0000000000000000000000007d9103572be58ffe99dc390e8246f02dcae6f61100000000000000000000000000000000000000000000000000000000000000000000000000000000000000000000000000000000000000000002737d15f4deb00000000000000000000000000000000000000000000000000000da374bcebeb00000000000000000000000007d9103572be58ffe99dc390e8246f02dcae6f611000000000000000000000000bbd9f90699c1fa0d7a65870d241dd1f1217c96eb000000000000000000000000000000000000000000000000000000000006ddd0000000000000000000000000000000000000000000000000000000003b9aca000000000000000000000000000000000000000000000000000000000000000244d9a4cbdf00000000000000000000000000000000000000000000000000000000000000a000000000000000000000000000000000000000000000000000000000000000e0000000000000000000000000000000000000000000000000000000000000012000000000000000000000000000000000000000000000000000000000000001a00000000000000000000000000000000000000000000000000000000000000200000000000000000000000000000000000000000000000000000000000000000100000000000000000000000089f1e458b51749ed887c382f06459fc8d7ff784600000000000000000000000000000000000000000000000000000000000000010000000000000000000000000000000000000000000000000000000000000000000000000000000000000000000000000000000000000000000000000000000100000000000000000000000000000000000000000000000000000000000000200000000000000000000000000000000000000000000000000000000000000009657865637574652829000000000000000000000000000000000000000000000000000000000000000000000000000000000000000000000000000000000000010000000000000000000000000000000000000000000000000000000000000020000000000000000000000000000000000000000000000000000000000000000000000000000000000000000000000000000000000000000000000000000000010000000000000000000000000000000000000000000000000000000000000001",
                      },
                    ],
                    "decoded_output": [
                      {
                        "soltype": {
                          "components": null,
                          "index": "0x0000000000000000000000000000000000000000000000000000000000000000",
                          "indexed": false,
                          "name": "",
                          "offset": 0,
                          "simple_type": {
                            "type": "uint",
                          },
                          "storage_location": "default",
                          "type": "uint256",
                        },
                        "value": "846838",
                      },
                    ],
                    "from": "0x5aed5f8a1e3607476f1f81c3d8fe126deb0afe94",
                    "from_balance": null,
                    "function_code_length": 428,
                    "function_code_start": 22080,
                    "function_file_index": 9,
                    "function_line_number": 608,
                    "function_name": "_deliverMessage",
                    "function_op": "JUMPDEST",
                    "function_pc": 7564,
                    "function_variables": [
                      {
                        "soltype": {
                          "components": null,
                          "index": "0x0000000000000000000000000000000000000000000000000000000000000000",
                          "indexed": false,
                          "name": "msgNum",
                          "offset": 0,
                          "simple_type": {
                            "type": "uint",
                          },
                          "storage_location": "default",
                          "type": "uint256",
                        },
                        "value": "846838",
                      },
                    ],
                    "gas": 701444,
                    "gas_used": 66717,
                    "hash": "",
                    "input": "0x",
                    "network_id": "",
                    "output": "0x",
                    "to": "0x5aed5f8a1e3607476f1f81c3d8fe126deb0afe94",
                    "to_balance": null,
                    "value": null,
                  },
                ],
                "contract_name": "TransparentUpgradeableProxy",
                "decoded_input": [
                  {
                    "soltype": {
                      "components": null,
                      "index": "0x0000000000000000000000000000000000000000000000000000000000000000",
                      "indexed": false,
                      "name": "to",
                      "offset": 0,
                      "simple_type": {
                        "type": "address",
                      },
                      "storage_location": "default",
                      "type": "address",
                    },
                    "value": "0x7d9103572be58ffe99dc390e8246f02dcae6f611",
                  },
                  {
                    "soltype": {
                      "components": null,
                      "index": "0x0000000000000000000000000000000000000000000000000000000000000000",
                      "indexed": false,
                      "name": "l2CallValue",
                      "offset": 0,
                      "simple_type": {
                        "type": "uint",
                      },
                      "storage_location": "default",
                      "type": "uint256",
                    },
                    "value": "0",
                  },
                  {
                    "soltype": {
                      "components": null,
                      "index": "0x0000000000000000000000000000000000000000000000000000000000000000",
                      "indexed": false,
                      "name": "maxSubmissionCost",
                      "offset": 0,
                      "simple_type": {
                        "type": "uint",
                      },
                      "storage_location": "default",
                      "type": "uint256",
                    },
                    "value": "239931029896880",
                  },
                  {
                    "soltype": {
                      "components": null,
                      "index": "0x0000000000000000000000000000000000000000000000000000000000000000",
                      "indexed": false,
                      "name": "excessFeeRefundAddress",
                      "offset": 0,
                      "simple_type": {
                        "type": "address",
                      },
                      "storage_location": "default",
                      "type": "address",
                    },
                    "value": "0x7d9103572be58ffe99dc390e8246f02dcae6f611",
                  },
                  {
                    "soltype": {
                      "components": null,
                      "index": "0x0000000000000000000000000000000000000000000000000000000000000000",
                      "indexed": false,
                      "name": "callValueRefundAddress",
                      "offset": 0,
                      "simple_type": {
                        "type": "address",
                      },
                      "storage_location": "default",
                      "type": "address",
                    },
                    "value": "0xbbd9f90699c1fa0d7a65870d241dd1f1217c96eb",
                  },
                  {
                    "soltype": {
                      "components": null,
                      "index": "0x0000000000000000000000000000000000000000000000000000000000000000",
                      "indexed": false,
                      "name": "gasLimit",
                      "offset": 0,
                      "simple_type": {
                        "type": "uint",
                      },
                      "storage_location": "default",
                      "type": "uint256",
                    },
                    "value": "450000",
                  },
                  {
                    "soltype": {
                      "components": null,
                      "index": "0x0000000000000000000000000000000000000000000000000000000000000000",
                      "indexed": false,
                      "name": "maxFeePerGas",
                      "offset": 0,
                      "simple_type": {
                        "type": "uint",
                      },
                      "storage_location": "default",
                      "type": "uint256",
                    },
                    "value": "1000000000",
                  },
                  {
                    "soltype": {
                      "components": null,
                      "index": "0x0000000000000000000000000000000000000000000000000000000000000000",
                      "indexed": false,
                      "name": "data",
                      "offset": 0,
                      "simple_type": {
                        "type": "bytes",
                      },
                      "storage_location": "default",
                      "type": "bytes",
                    },
                    "value": "0xd9a4cbdf00000000000000000000000000000000000000000000000000000000000000a000000000000000000000000000000000000000000000000000000000000000e0000000000000000000000000000000000000000000000000000000000000012000000000000000000000000000000000000000000000000000000000000001a00000000000000000000000000000000000000000000000000000000000000200000000000000000000000000000000000000000000000000000000000000000100000000000000000000000089f1e458b51749ed887c382f06459fc8d7ff784600000000000000000000000000000000000000000000000000000000000000010000000000000000000000000000000000000000000000000000000000000000000000000000000000000000000000000000000000000000000000000000000100000000000000000000000000000000000000000000000000000000000000200000000000000000000000000000000000000000000000000000000000000009657865637574652829000000000000000000000000000000000000000000000000000000000000000000000000000000000000000000000000000000000000010000000000000000000000000000000000000000000000000000000000000020000000000000000000000000000000000000000000000000000000000000000000000000000000000000000000000000000000000000000000000000000000010000000000000000000000000000000000000000000000000000000000000001",
                  },
                ],
                "decoded_output": [
                  {
                    "soltype": {
                      "components": null,
                      "index": "0x0000000000000000000000000000000000000000000000000000000000000000",
                      "indexed": false,
                      "name": "",
                      "offset": 0,
                      "simple_type": {
                        "type": "uint",
                      },
                      "storage_location": "default",
                      "type": "uint256",
                    },
                    "value": "846838",
                  },
                ],
                "from": "0x4dbd4fc535ac27206064b68ffcf827b0a60bab3f",
                "from_balance": "689931029896880",
                "function_code_length": 1910,
                "function_code_start": 16620,
                "function_file_index": 9,
                "function_line_number": 476,
                "function_name": "unsafeCreateRetryableTicket",
                "function_op": "JUMPDEST",
                "function_pc": 4485,
                "gas": 707651,
                "gas_used": 73002,
                "hash": "",
                "input": "0x6e6e8a6a0000000000000000000000007d9103572be58ffe99dc390e8246f02dcae6f61100000000000000000000000000000000000000000000000000000000000000000000000000000000000000000000000000000000000000000000da374bcebeb00000000000000000000000007d9103572be58ffe99dc390e8246f02dcae6f611000000000000000000000000bbd9f90699c1fa0d7a65870d241dd1f1217c96eb000000000000000000000000000000000000000000000000000000000006ddd0000000000000000000000000000000000000000000000000000000003b9aca0000000000000000000000000000000000000000000000000000000000000001000000000000000000000000000000000000000000000000000000000000000244d9a4cbdf00000000000000000000000000000000000000000000000000000000000000a000000000000000000000000000000000000000000000000000000000000000e0000000000000000000000000000000000000000000000000000000000000012000000000000000000000000000000000000000000000000000000000000001a00000000000000000000000000000000000000000000000000000000000000200000000000000000000000000000000000000000000000000000000000000000100000000000000000000000089f1e458b51749ed887c382f06459fc8d7ff78460000000000000000000000000000000000000000000000000000000000000001000000000000000000000000000000000000000000000000000000000000000000000000000000000000000000000000000000000000000000000000000000010000000000000000000000000000000000000000000000000000000000000020000000000000000000000000000000000000000000000000000000000000000965786563757465282900000000000000000000000000000000000000000000000000000000000000000000000000000000000000000000000000000000000001000000000000000000000000000000000000000000000000000000000000002000000000000000000000000000000000000000000000000000000000000000000000000000000000000000000000000000000000000000000000000000000001000000000000000000000000000000000000000000000000000000000000000100000000000000000000000000000000000000000000000000000000",
                "network_id": "",
                "output": "0x00000000000000000000000000000000000000000000000000000000000cebf6",
                "refund_gas": 11232,
                "to": "0x5aed5f8a1e3607476f1f81c3d8fe126deb0afe94",
                "to_balance": "0",
                "value": null,
              },
            ],
            "contract_name": "TransparentUpgradeableProxy",
            "decoded_input": [
              {
                "soltype": {
                  "components": null,
                  "index": "0x0000000000000000000000000000000000000000000000000000000000000000",
                  "indexed": false,
                  "name": "implementation",
                  "offset": 0,
                  "simple_type": {
                    "type": "address",
                  },
                  "storage_location": "default",
                  "type": "address",
                },
                "value": "0x5aed5f8a1e3607476f1f81c3d8fe126deb0afe94",
              },
            ],
            "decoded_output": null,
            "from": "0x4dbd4fc535ac27206064b68ffcf827b0a60bab3f",
            "from_balance": null,
            "function_code_length": 895,
            "function_code_start": 891,
            "function_file_index": 0,
            "function_line_number": 21,
            "function_name": "_delegate",
            "function_op": "JUMPDEST",
            "function_pc": 1083,
            "gas": 719177,
            "gas_used": 73337,
            "hash": "",
            "input": "0x",
            "network_id": "",
            "output": "0x",
            "to": "0x4dbd4fc535ac27206064b68ffcf827b0a60bab3f",
            "to_balance": null,
            "value": null,
          },
        ],
        "contract_name": "TransparentUpgradeableProxy",
        "decoded_output": null,
        "from": "0x4dbd4fc535ac27206064b68ffcf827b0a60bab3f",
        "from_balance": null,
        "function_code_length": 110,
        "function_code_start": 2265,
        "function_file_index": 0,
        "function_line_number": 54,
        "function_name": "_fallback",
        "function_op": "JUMPDEST",
        "function_pc": 401,
        "gas": 719558,
        "gas_used": 73718,
        "hash": "",
        "input": "0x",
        "network_id": "",
        "output": "0x",
        "to": "0x4dbd4fc535ac27206064b68ffcf827b0a60bab3f",
        "to_balance": null,
        "value": null,
      },
    ],
    "decoded_input": [
      {
        "soltype": {
          "components": null,
          "index": "0x0000000000000000000000000000000000000000000000000000000000000000",
          "indexed": false,
          "name": "to",
          "offset": 0,
          "simple_type": {
            "type": "address",
          },
          "storage_location": "default",
          "type": "address",
        },
        "value": "0x7d9103572be58ffe99dc390e8246f02dcae6f611",
      },
      {
        "soltype": {
          "components": null,
          "index": "0x0000000000000000000000000000000000000000000000000000000000000000",
          "indexed": false,
          "name": "l2CallValue",
          "offset": 0,
          "simple_type": {
            "type": "uint",
          },
          "storage_location": "default",
          "type": "uint256",
        },
        "value": "0",
      },
      {
        "soltype": {
          "components": null,
          "index": "0x0000000000000000000000000000000000000000000000000000000000000000",
          "indexed": false,
          "name": "maxSubmissionCost",
          "offset": 0,
          "simple_type": {
            "type": "uint",
          },
          "storage_location": "default",
          "type": "uint256",
        },
        "value": "239931029896880",
      },
      {
        "soltype": {
          "components": null,
          "index": "0x0000000000000000000000000000000000000000000000000000000000000000",
          "indexed": false,
          "name": "excessFeeRefundAddress",
          "offset": 0,
          "simple_type": {
            "type": "address",
          },
          "storage_location": "default",
          "type": "address",
        },
        "value": "0x7d9103572be58ffe99dc390e8246f02dcae6f611",
      },
      {
        "soltype": {
          "components": null,
          "index": "0x0000000000000000000000000000000000000000000000000000000000000000",
          "indexed": false,
          "name": "callValueRefundAddress",
          "offset": 0,
          "simple_type": {
            "type": "address",
          },
          "storage_location": "default",
          "type": "address",
        },
        "value": "0xbbd9f90699c1fa0d7a65870d241dd1f1217c96eb",
      },
      {
        "soltype": {
          "components": null,
          "index": "0x0000000000000000000000000000000000000000000000000000000000000000",
          "indexed": false,
          "name": "gasLimit",
          "offset": 0,
          "simple_type": {
            "type": "uint",
          },
          "storage_location": "default",
          "type": "uint256",
        },
        "value": "450000",
      },
      {
        "soltype": {
          "components": null,
          "index": "0x0000000000000000000000000000000000000000000000000000000000000000",
          "indexed": false,
          "name": "maxFeePerGas",
          "offset": 0,
          "simple_type": {
            "type": "uint",
          },
          "storage_location": "default",
          "type": "uint256",
        },
        "value": "1000000000",
      },
      {
        "soltype": {
          "components": null,
          "index": "0x0000000000000000000000000000000000000000000000000000000000000000",
          "indexed": false,
          "name": "data",
          "offset": 0,
          "simple_type": {
            "type": "bytes",
          },
          "storage_location": "default",
          "type": "bytes",
        },
        "value": "0xd9a4cbdf00000000000000000000000000000000000000000000000000000000000000a000000000000000000000000000000000000000000000000000000000000000e0000000000000000000000000000000000000000000000000000000000000012000000000000000000000000000000000000000000000000000000000000001a00000000000000000000000000000000000000000000000000000000000000200000000000000000000000000000000000000000000000000000000000000000100000000000000000000000089f1e458b51749ed887c382f06459fc8d7ff784600000000000000000000000000000000000000000000000000000000000000010000000000000000000000000000000000000000000000000000000000000000000000000000000000000000000000000000000000000000000000000000000100000000000000000000000000000000000000000000000000000000000000200000000000000000000000000000000000000000000000000000000000000009657865637574652829000000000000000000000000000000000000000000000000000000000000000000000000000000000000000000000000000000000000010000000000000000000000000000000000000000000000000000000000000020000000000000000000000000000000000000000000000000000000000000000000000000000000000000000000000000000000000000000000000000000000010000000000000000000000000000000000000000000000000000000000000001",
      },
    ],
    "decoded_output": null,
    "from": "0xd1b3e25fd7c8ae7caddc6f71b461b79cd4ddcfa3",
    "from_balance": "0",
    "function_code_length": 4578,
    "function_code_start": 1552,
    "function_file_index": 1,
    "function_line_number": 28,
    "function_name": "unsafeCreateRetryableTicket",
    "function_op": "JUMPDEST",
    "function_pc": 93,
    "gas": 719745,
    "gas_used": 73905,
    "hash": "",
    "input": "0x6e6e8a6a0000000000000000000000007d9103572be58ffe99dc390e8246f02dcae6f61100000000000000000000000000000000000000000000000000000000000000000000000000000000000000000000000000000000000000000000da374bcebeb00000000000000000000000007d9103572be58ffe99dc390e8246f02dcae6f611000000000000000000000000bbd9f90699c1fa0d7a65870d241dd1f1217c96eb000000000000000000000000000000000000000000000000000000000006ddd0000000000000000000000000000000000000000000000000000000003b9aca0000000000000000000000000000000000000000000000000000000000000001000000000000000000000000000000000000000000000000000000000000000244d9a4cbdf00000000000000000000000000000000000000000000000000000000000000a000000000000000000000000000000000000000000000000000000000000000e0000000000000000000000000000000000000000000000000000000000000012000000000000000000000000000000000000000000000000000000000000001a00000000000000000000000000000000000000000000000000000000000000200000000000000000000000000000000000000000000000000000000000000000100000000000000000000000089f1e458b51749ed887c382f06459fc8d7ff78460000000000000000000000000000000000000000000000000000000000000001000000000000000000000000000000000000000000000000000000000000000000000000000000000000000000000000000000000000000000000000000000010000000000000000000000000000000000000000000000000000000000000020000000000000000000000000000000000000000000000000000000000000000965786563757465282900000000000000000000000000000000000000000000000000000000000000000000000000000000000000000000000000000000000001000000000000000000000000000000000000000000000000000000000000002000000000000000000000000000000000000000000000000000000000000000000000000000000000000000000000000000000000000000000000000000000001000000000000000000000000000000000000000000000000000000000000000100000000000000000000000000000000000000000000000000000000",
    "network_id": "",
    "output": "0x00000000000000000000000000000000000000000000000000000000000cebf6",
    "refund_gas": 11388,
    "to": "0x4dbd4fc535ac27206064b68ffcf827b0a60bab3f",
    "to_balance": "0",
    "value": "689931029896880",
  },
]
`;

exports[`findSubProposals > should find optimism proposals 1`] = `
[
  {
    "absolute_position": 40436,
    "block_timestamp": "0001-01-01T00:00:00Z",
    "call_type": "CALL",
    "caller": {
      "address": "0xee56e2b3d491590b5b31738cc34d5232f378a8d5",
      "balance": "43240255045273680",
    },
    "caller_code_length": 184,
    "caller_code_start": 3346,
    "caller_file_index": 3,
    "caller_line_number": 69,
    "caller_op": "CALL",
    "caller_pc": 957,
    "calls": [
      {
        "absolute_position": 35939,
        "block_timestamp": "0001-01-01T00:00:00Z",
        "call_type": "STATICCALL",
        "caller": {
          "address": "0x25ace71c97b33cc4729cf772ae268934f7ab5fa1",
          "balance": "0",
        },
        "caller_code_length": 99,
        "caller_code_start": 1684,
        "caller_file_index": 3,
        "caller_line_number": 53,
        "caller_op": "STATICCALL",
        "caller_pc": 214,
        "calls": [
          {
            "absolute_position": 35808,
            "block_timestamp": "0001-01-01T00:00:00Z",
            "call_type": "JUMPDEST",
            "caller": {
              "address": "0x25ace71c97b33cc4729cf772ae268934f7ab5fa1",
              "balance": "0",
            },
            "caller_code_length": 19,
            "caller_code_start": 1520,
            "caller_file_index": 2,
            "caller_line_number": 71,
            "caller_op": "JUMP",
            "caller_pc": 1083,
            "calls": null,
            "contract_name": "Lib_AddressManager",
            "decoded_input": [
              {
                "soltype": {
                  "components": null,
                  "index": "0x0000000000000000000000000000000000000000000000000000000000000000",
                  "indexed": false,
                  "name": "_name",
                  "offset": 0,
                  "simple_type": {
                    "type": "string",
                  },
                  "storage_location": "memory",
                  "type": "string",
                },
                "value": "OVM_L1CrossDomainMessenger",
              },
            ],
            "decoded_output": [
              {
                "soltype": {
                  "components": null,
                  "index": "0x0000000000000000000000000000000000000000000000000000000000000000",
                  "indexed": false,
                  "name": "",
                  "offset": 0,
                  "simple_type": {
                    "type": "bytes",
                  },
                  "storage_location": "default",
                  "type": "bytes32",
                },
                "value": "0x3b4a6791a6879d27c0ceeea3f78f8ebe66a01905f4a1290a8c6aff3e85f4665a",
              },
            ],
            "from": "0xde1fcfb0851916ca5101820a69b13a4e276bd81f",
            "from_balance": null,
            "function_code_length": 197,
            "function_code_start": 1779,
            "function_file_index": 2,
            "function_line_number": 84,
            "function_name": "_getNameHash",
            "function_op": "JUMPDEST",
            "function_pc": 1396,
            "gas": 710477,
            "gas_used": 334,
            "hash": "",
            "input": "0x",
            "network_id": "",
            "output": "0x",
            "to": "0xde1fcfb0851916ca5101820a69b13a4e276bd81f",
            "to_balance": null,
            "value": null,
          },
        ],
        "contract_name": "Lib_ResolvedDelegateProxy",
        "decoded_input": [
          {
            "soltype": {
              "components": null,
              "index": "0x0000000000000000000000000000000000000000000000000000000000000000",
              "indexed": false,
              "name": "_name",
              "offset": 0,
              "simple_type": {
                "type": "string",
              },
              "storage_location": "default",
              "type": "string",
            },
            "value": "OVM_L1CrossDomainMessenger",
          },
        ],
        "decoded_output": [
          {
            "soltype": {
              "components": null,
              "index": "0x0000000000000000000000000000000000000000000000000000000000000000",
              "indexed": false,
              "name": "",
              "offset": 0,
              "simple_type": {
                "type": "address",
              },
              "storage_location": "default",
              "type": "address",
            },
            "value": "0xd9166833ff12a5f900ccfbf2c8b62a90f1ca1fd5",
          },
        ],
        "from": "0x25ace71c97b33cc4729cf772ae268934f7ab5fa1",
        "from_balance": "0",
        "function_code_length": 191,
        "function_code_start": 1356,
        "function_file_index": 2,
        "function_line_number": 62,
        "function_name": "getAddress",
        "function_op": "JUMPDEST",
        "function_pc": 1069,
        "gas": 711048,
        "gas_used": 3187,
        "hash": "",
        "input": "0xbf40fac10000000000000000000000000000000000000000000000000000000000000020000000000000000000000000000000000000000000000000000000000000001a4f564d5f4c3143726f7373446f6d61696e4d657373656e676572000000000000",
        "network_id": "",
        "output": "0x000000000000000000000000d9166833ff12a5f900ccfbf2c8b62a90f1ca1fd5",
        "refund_gas": 11286,
        "to": "0xde1fcfb0851916ca5101820a69b13a4e276bd81f",
        "to_balance": "0",
        "value": null,
      },
      {
        "absolute_position": 40401,
        "block_timestamp": "0001-01-01T00:00:00Z",
        "call_type": "DELEGATECALL",
        "caller": {
          "address": "0xee56e2b3d491590b5b31738cc34d5232f378a8d5",
          "balance": "43240255045273680",
        },
        "caller_code_length": 29,
        "caller_code_start": 1949,
        "caller_file_index": 3,
        "caller_line_number": 62,
        "caller_op": "DELEGATECALL",
        "caller_pc": 374,
        "calls": [
          {
            "absolute_position": 36289,
            "block_timestamp": "0001-01-01T00:00:00Z",
            "call_type": "JUMPDEST",
            "caller": {
              "address": "0xee56e2b3d491590b5b31738cc34d5232f378a8d5",
              "balance": "43240255045273680",
            },
            "caller_code_length": 36,
            "caller_code_start": 4890,
            "caller_file_index": 8,
            "caller_line_number": 140,
            "caller_op": "JUMP",
            "caller_pc": 940,
            "calls": [
              {
                "absolute_position": 36725,
                "block_timestamp": "0001-01-01T00:00:00Z",
                "call_type": "STATICCALL",
                "caller": {
                  "address": "0x25ace71c97b33cc4729cf772ae268934f7ab5fa1",
                  "balance": "0",
                },
                "caller_code_length": 35,
                "caller_code_start": 950,
                "caller_file_index": 18,
                "caller_line_number": 38,
                "caller_op": "STATICCALL",
                "caller_pc": 1319,
                "calls": [
                  {
                    "absolute_position": 36594,
                    "block_timestamp": "0001-01-01T00:00:00Z",
                    "call_type": "JUMPDEST",
                    "caller": {
                      "address": "0x25ace71c97b33cc4729cf772ae268934f7ab5fa1",
                      "balance": "0",
                    },
                    "caller_code_length": 19,
                    "caller_code_start": 1520,
                    "caller_file_index": 2,
                    "caller_line_number": 71,
                    "caller_op": "JUMP",
                    "caller_pc": 1083,
                    "calls": null,
                    "contract_name": "Lib_AddressManager",
                    "decoded_input": [
                      {
                        "soltype": {
                          "components": null,
                          "index": "0x0000000000000000000000000000000000000000000000000000000000000000",
                          "indexed": false,
                          "name": "_name",
                          "offset": 0,
                          "simple_type": {
                            "type": "string",
                          },
                          "storage_location": "memory",
                          "type": "string",
                        },
                        "value": "CanonicalTransactionChain",
                      },
                    ],
                    "decoded_output": [
                      {
                        "soltype": {
                          "components": null,
                          "index": "0x0000000000000000000000000000000000000000000000000000000000000000",
                          "indexed": false,
                          "name": "",
                          "offset": 0,
                          "simple_type": {
                            "type": "bytes",
                          },
                          "storage_location": "default",
                          "type": "bytes32",
                        },
                        "value": "0x02b616af23339f1e031e76333e2d5b1c3067beb78578c961911872cc2127ef8b",
                      },
                    ],
                    "from": "0xde1fcfb0851916ca5101820a69b13a4e276bd81f",
                    "from_balance": null,
                    "function_code_length": 197,
                    "function_code_start": 1779,
                    "function_file_index": 2,
                    "function_line_number": 84,
                    "function_name": "_getNameHash",
                    "function_op": "JUMPDEST",
                    "function_pc": 1396,
                    "gas": 689642,
                    "gas_used": 334,
                    "hash": "",
                    "input": "0x",
                    "network_id": "",
                    "output": "0x",
                    "to": "0xde1fcfb0851916ca5101820a69b13a4e276bd81f",
                    "to_balance": null,
                    "value": null,
                  },
                ],
                "contract_name": "L1CrossDomainMessenger",
                "decoded_input": [
                  {
                    "soltype": {
                      "components": null,
                      "index": "0x0000000000000000000000000000000000000000000000000000000000000000",
                      "indexed": false,
                      "name": "_name",
                      "offset": 0,
                      "simple_type": {
                        "type": "string",
                      },
                      "storage_location": "default",
                      "type": "string",
                    },
                    "value": "CanonicalTransactionChain",
                  },
                ],
                "decoded_output": [
                  {
                    "soltype": {
                      "components": null,
                      "index": "0x0000000000000000000000000000000000000000000000000000000000000000",
                      "indexed": false,
                      "name": "",
                      "offset": 0,
                      "simple_type": {
                        "type": "address",
                      },
                      "storage_location": "default",
                      "type": "address",
                    },
                    "value": "0x5e4e65926ba27467555eb562121fac00d24e9dd2",
                  },
                ],
                "from": "0xd9166833ff12a5f900ccfbf2c8b62a90f1ca1fd5",
                "from_balance": "0",
                "function_code_length": 191,
                "function_code_start": 1356,
                "function_file_index": 2,
                "function_line_number": 62,
                "function_name": "getAddress",
                "function_op": "JUMPDEST",
                "function_pc": 1069,
                "gas": 690213,
                "gas_used": 3187,
                "hash": "",
                "input": "0xbf40fac10000000000000000000000000000000000000000000000000000000000000020000000000000000000000000000000000000000000000000000000000000001943616e6f6e6963616c5472616e73616374696f6e436861696e00000000000000",
                "network_id": "",
                "output": "0x0000000000000000000000005e4e65926ba27467555eb562121fac00d24e9dd2",
                "refund_gas": 10955,
                "to": "0xde1fcfb0851916ca5101820a69b13a4e276bd81f",
                "to_balance": "0",
                "value": null,
              },
            ],
            "contract_name": "L1CrossDomainMessenger",
            "decoded_input": [
              {
                "soltype": {
                  "components": null,
                  "index": "0x0000000000000000000000000000000000000000000000000000000000000000",
                  "indexed": false,
                  "name": "_name",
                  "offset": 0,
                  "simple_type": {
                    "type": "string",
                  },
                  "storage_location": "memory",
                  "type": "string",
                },
                "value": "CanonicalTransactionChain",
              },
            ],
            "decoded_output": [
              {
                "soltype": {
                  "components": null,
                  "index": "0x0000000000000000000000000000000000000000000000000000000000000000",
                  "indexed": false,
                  "name": "",
                  "offset": 0,
                  "simple_type": {
                    "type": "address",
                  },
                  "storage_location": "default",
                  "type": "address",
                },
                "value": "0x5e4e65926ba27467555eb562121fac00d24e9dd2",
              },
            ],
            "from": "0xd9166833ff12a5f900ccfbf2c8b62a90f1ca1fd5",
            "from_balance": null,
            "function_code_length": 127,
            "function_code_start": 865,
            "function_file_index": 18,
            "function_line_number": 37,
            "function_name": "resolve",
            "function_op": "JUMPDEST",
            "function_pc": 1205,
            "gas": 703928,
            "gas_used": 6189,
            "hash": "",
            "input": "0x",
            "network_id": "",
            "output": "0x",
            "to": "0xd9166833ff12a5f900ccfbf2c8b62a90f1ca1fd5",
            "to_balance": null,
            "value": null,
          },
          {
            "absolute_position": 36903,
            "block_timestamp": "0001-01-01T00:00:00Z",
            "call_type": "STATICCALL",
            "caller": {
              "address": "0x25ace71c97b33cc4729cf772ae268934f7ab5fa1",
              "balance": "0",
            },
            "caller_code_length": 73,
            "caller_code_start": 4996,
            "caller_file_index": 8,
            "caller_line_number": 142,
            "caller_op": "STATICCALL",
            "caller_pc": 1018,
            "calls": null,
            "contract_name": "L1CrossDomainMessenger",
            "decoded_output": [
              {
                "soltype": {
                  "components": null,
                  "index": "0x0000000000000000000000000000000000000000000000000000000000000000",
                  "indexed": false,
                  "name": "",
                  "offset": 0,
                  "simple_type": {
                    "type": "uint",
                  },
                  "storage_location": "default",
                  "type": "uint40",
                },
                "value": "348777",
              },
            ],
            "from": "0xd9166833ff12a5f900ccfbf2c8b62a90f1ca1fd5",
            "from_balance": "0",
            "function_code_length": 107,
            "function_code_start": 6526,
            "function_file_index": 2,
            "function_line_number": 191,
            "function_name": "getQueueLength",
            "function_op": "JUMPDEST",
            "function_pc": 663,
            "gas": 686534,
            "gas_used": 2346,
            "hash": "",
            "input": "0xb8f77005",
            "network_id": "",
            "output": "0x0000000000000000000000000000000000000000000000000000000000055269",
            "refund_gas": 10897,
            "to": "0x5e4e65926ba27467555eb562121fac00d24e9dd2",
            "to_balance": "0",
            "value": null,
          },
          {
            "absolute_position": 36986,
            "block_timestamp": "0001-01-01T00:00:00Z",
            "call_type": "JUMPDEST",
            "caller": {
              "address": "0xee56e2b3d491590b5b31738cc34d5232f378a8d5",
              "balance": "43240255045273680",
            },
            "caller_code_length": 138,
            "caller_code_start": 5111,
            "caller_file_index": 8,
            "caller_line_number": 144,
            "caller_op": "JUMP",
            "caller_pc": 1093,
            "calls": null,
            "contract_name": "L1CrossDomainMessenger",
            "decoded_input": [
              {
                "soltype": {
                  "components": null,
                  "index": "0x0000000000000000000000000000000000000000000000000000000000000000",
                  "indexed": false,
                  "name": "_target",
                  "offset": 0,
                  "simple_type": {
                    "type": "address",
                  },
                  "storage_location": "default",
                  "type": "address",
                },
                "value": "0x7d9103572be58ffe99dc390e8246f02dcae6f611",
              },
              {
                "soltype": {
                  "components": null,
                  "index": "0x0000000000000000000000000000000000000000000000000000000000000000",
                  "indexed": false,
                  "name": "_sender",
                  "offset": 0,
                  "simple_type": {
                    "type": "address",
                  },
                  "storage_location": "default",
                  "type": "address",
                },
                "value": "0xee56e2b3d491590b5b31738cc34d5232f378a8d5",
              },
              {
                "soltype": {
                  "components": null,
                  "index": "0x0000000000000000000000000000000000000000000000000000000000000000",
                  "indexed": false,
                  "name": "_message",
                  "offset": 0,
                  "simple_type": {
                    "type": "bytes",
                  },
                  "storage_location": "memory",
                  "type": "bytes",
                },
                "value": "0xd9a4cbdf00000000000000000000000000000000000000000000000000000000000000a000000000000000000000000000000000000000000000000000000000000000e0000000000000000000000000000000000000000000000000000000000000012000000000000000000000000000000000000000000000000000000000000001a0000000000000000000000000000000000000000000000000000000000000020000000000000000000000000000000000000000000000000000000000000000010000000000000000000000001720d605289a189c5fbd360ca2307db5c6d3fdfd00000000000000000000000000000000000000000000000000000000000000010000000000000000000000000000000000000000000000000000000000000000000000000000000000000000000000000000000000000000000000000000000100000000000000000000000000000000000000000000000000000000000000200000000000000000000000000000000000000000000000000000000000000009657865637574652829000000000000000000000000000000000000000000000000000000000000000000000000000000000000000000000000000000000000010000000000000000000000000000000000000000000000000000000000000020000000000000000000000000000000000000000000000000000000000000000000000000000000000000000000000000000000000000000000000000000000010000000000000000000000000000000000000000000000000000000000000001",
              },
              {
                "soltype": {
                  "components": null,
                  "index": "0x0000000000000000000000000000000000000000000000000000000000000000",
                  "indexed": false,
                  "name": "_messageNonce",
                  "offset": 0,
                  "simple_type": {
                    "type": "uint",
                  },
                  "storage_location": "default",
                  "type": "uint256",
                },
                "value": "348777",
              },
            ],
            "decoded_output": [
              {
                "soltype": {
                  "components": null,
                  "index": "0x0000000000000000000000000000000000000000000000000000000000000000",
                  "indexed": false,
                  "name": "",
                  "offset": 0,
                  "simple_type": {
                    "type": "bytes",
                  },
                  "storage_location": "memory",
                  "type": "bytes",
                },
                "value": "0xcbd4ece90000000000000000000000007d9103572be58ffe99dc390e8246f02dcae6f611000000000000000000000000ee56e2b3d491590b5b31738cc34d5232f378a8d5000000000000000000000000000000000000000000000000000000000000008000000000000000000000000000000000000000000000000000000000000552690000000000000000000000000000000000000000000000000000000000000244d9a4cbdf00000000000000000000000000000000000000000000000000000000000000a000000000000000000000000000000000000000000000000000000000000000e0000000000000000000000000000000000000000000000000000000000000012000000000000000000000000000000000000000000000000000000000000001a0000000000000000000000000000000000000000000000000000000000000020000000000000000000000000000000000000000000000000000000000000000010000000000000000000000001720d605289a189c5fbd360ca2307db5c6d3fdfd0000000000000000000000000000000000000000000000000000000000000001000000000000000000000000000000000000000000000000000000000000000000000000000000000000000000000000000000000000000000000000000000010000000000000000000000000000000000000000000000000000000000000020000000000000000000000000000000000000000000000000000000000000000965786563757465282900000000000000000000000000000000000000000000000000000000000000000000000000000000000000000000000000000000000001000000000000000000000000000000000000000000000000000000000000002000000000000000000000000000000000000000000000000000000000000000000000000000000000000000000000000000000000000000000000000000000001000000000000000000000000000000000000000000000000000000000000000100000000000000000000000000000000000000000000000000000000",
              },
            ],
            "from": "0xd9166833ff12a5f900ccfbf2c8b62a90f1ca1fd5",
            "from_balance": null,
            "function_code_length": 429,
            "function_code_start": 551,
            "function_file_index": 13,
            "function_line_number": 19,
            "function_name": "encodeXDomainCalldata",
            "function_op": "JUMPDEST",
            "function_pc": 4468,
            "gas": 694816,
            "gas_used": 1834,
            "hash": "",
            "input": "0x",
            "network_id": "",
            "output": "0x",
            "to": "0xd9166833ff12a5f900ccfbf2c8b62a90f1ca1fd5",
            "to_balance": null,
            "value": null,
          },
          {
            "absolute_position": 37516,
            "block_timestamp": "0001-01-01T00:00:00Z",
            "call_type": "JUMPDEST",
            "caller": {
              "address": "0xee56e2b3d491590b5b31738cc34d5232f378a8d5",
              "balance": "43240255045273680",
            },
            "caller_code_length": 77,
            "caller_code_start": 5260,
            "caller_file_index": 8,
            "caller_line_number": 151,
            "caller_op": "JUMP",
            "caller_pc": 1112,
            "calls": [
              {
                "absolute_position": 39885,
                "block_timestamp": "0001-01-01T00:00:00Z",
                "call_type": "CALL",
                "caller": {
                  "address": "0x25ace71c97b33cc4729cf772ae268934f7ab5fa1",
                  "balance": "0",
                },
                "caller_code_length": 179,
                "caller_code_start": 12378,
                "caller_file_index": 8,
                "caller_line_number": 358,
                "caller_op": "CALL",
                "caller_pc": 4726,
                "calls": null,
                "contract_name": "L1CrossDomainMessenger",
                "decoded_input": [
                  {
                    "soltype": {
                      "components": null,
                      "index": "0x0000000000000000000000000000000000000000000000000000000000000000",
                      "indexed": false,
                      "name": "_target",
                      "offset": 0,
                      "simple_type": {
                        "type": "address",
                      },
                      "storage_location": "default",
                      "type": "address",
                    },
                    "value": "0x4200000000000000000000000000000000000007",
                  },
                  {
                    "soltype": {
                      "components": null,
                      "index": "0x0000000000000000000000000000000000000000000000000000000000000000",
                      "indexed": false,
                      "name": "_gasLimit",
                      "offset": 0,
                      "simple_type": {
                        "type": "uint",
                      },
                      "storage_location": "default",
                      "type": "uint256",
                    },
                    "value": "1920000",
                  },
                  {
                    "soltype": {
                      "components": null,
                      "index": "0x0000000000000000000000000000000000000000000000000000000000000000",
                      "indexed": false,
                      "name": "_data",
                      "offset": 0,
                      "simple_type": {
                        "type": "bytes",
                      },
                      "storage_location": "default",
                      "type": "bytes",
                    },
                    "value": "0xcbd4ece90000000000000000000000007d9103572be58ffe99dc390e8246f02dcae6f611000000000000000000000000ee56e2b3d491590b5b31738cc34d5232f378a8d5000000000000000000000000000000000000000000000000000000000000008000000000000000000000000000000000000000000000000000000000000552690000000000000000000000000000000000000000000000000000000000000244d9a4cbdf00000000000000000000000000000000000000000000000000000000000000a000000000000000000000000000000000000000000000000000000000000000e0000000000000000000000000000000000000000000000000000000000000012000000000000000000000000000000000000000000000000000000000000001a0000000000000000000000000000000000000000000000000000000000000020000000000000000000000000000000000000000000000000000000000000000010000000000000000000000001720d605289a189c5fbd360ca2307db5c6d3fdfd0000000000000000000000000000000000000000000000000000000000000001000000000000000000000000000000000000000000000000000000000000000000000000000000000000000000000000000000000000000000000000000000010000000000000000000000000000000000000000000000000000000000000020000000000000000000000000000000000000000000000000000000000000000965786563757465282900000000000000000000000000000000000000000000000000000000000000000000000000000000000000000000000000000000000001000000000000000000000000000000000000000000000000000000000000002000000000000000000000000000000000000000000000000000000000000000000000000000000000000000000000000000000000000000000000000000000001000000000000000000000000000000000000000000000000000000000000000100000000000000000000000000000000000000000000000000000000",
                  },
                ],
                "decoded_output": null,
                "from": "0xd9166833ff12a5f900ccfbf2c8b62a90f1ca1fd5",
                "from_balance": "0",
                "function_code_length": 3357,
                "function_code_start": 6869,
                "function_file_index": 2,
                "function_line_number": 201,
                "function_name": "enqueue",
                "function_op": "JUMPDEST",
                "function_pc": 1079,
                "gas": 679761,
                "gas_used": 65241,
                "hash": "",
                "input": "0x6fee07e0000000000000000000000000420000000000000000000000000000000000000700000000000000000000000000000000000000000000000000000000001d4c0000000000000000000000000000000000000000000000000000000000000000600000000000000000000000000000000000000000000000000000000000000304cbd4ece90000000000000000000000007d9103572be58ffe99dc390e8246f02dcae6f611000000000000000000000000ee56e2b3d491590b5b31738cc34d5232f378a8d5000000000000000000000000000000000000000000000000000000000000008000000000000000000000000000000000000000000000000000000000000552690000000000000000000000000000000000000000000000000000000000000244d9a4cbdf00000000000000000000000000000000000000000000000000000000000000a000000000000000000000000000000000000000000000000000000000000000e0000000000000000000000000000000000000000000000000000000000000012000000000000000000000000000000000000000000000000000000000000001a0000000000000000000000000000000000000000000000000000000000000020000000000000000000000000000000000000000000000000000000000000000010000000000000000000000001720d605289a189c5fbd360ca2307db5c6d3fdfd000000000000000000000000000000000000000000000000000000000000000100000000000000000000000000000000000000000000000000000000000000000000000000000000000000000000000000000000000000000000000000000001000000000000000000000000000000000000000000000000000000000000002000000000000000000000000000000000000000000000000000000000000000096578656375746528290000000000000000000000000000000000000000000000000000000000000000000000000000000000000000000000000000000000000100000000000000000000000000000000000000000000000000000000000000200000000000000000000000000000000000000000000000000000000000000000000000000000000000000000000000000000000000000000000000000000000100000000000000000000000000000000000000000000000000000000000000010000000000000000000000000000000000000000000000000000000000000000000000000000000000000000000000000000000000000000",
                "network_id": "",
                "output": "0x",
                "refund_gas": 10789,
                "to": "0x5e4e65926ba27467555eb562121fac00d24e9dd2",
                "to_balance": "0",
                "value": "0",
              },
            ],
            "contract_name": "L1CrossDomainMessenger",
            "decoded_input": [
              {
                "soltype": {
                  "components": null,
                  "index": "0x0000000000000000000000000000000000000000000000000000000000000000",
                  "indexed": false,
                  "name": "_canonicalTransactionChain",
                  "offset": 0,
                  "simple_type": {
                    "type": "address",
                  },
                  "storage_location": "default",
                  "type": "address",
                },
                "value": "0x5e4e65926ba27467555eb562121fac00d24e9dd2",
              },
              {
                "soltype": {
                  "components": null,
                  "index": "0x0000000000000000000000000000000000000000000000000000000000000000",
                  "indexed": false,
                  "name": "_message",
                  "offset": 0,
                  "simple_type": {
                    "type": "bytes",
                  },
                  "storage_location": "memory",
                  "type": "bytes",
                },
                "value": "0xcbd4ece90000000000000000000000007d9103572be58ffe99dc390e8246f02dcae6f611000000000000000000000000ee56e2b3d491590b5b31738cc34d5232f378a8d5000000000000000000000000000000000000000000000000000000000000008000000000000000000000000000000000000000000000000000000000000552690000000000000000000000000000000000000000000000000000000000000244d9a4cbdf00000000000000000000000000000000000000000000000000000000000000a000000000000000000000000000000000000000000000000000000000000000e0000000000000000000000000000000000000000000000000000000000000012000000000000000000000000000000000000000000000000000000000000001a0000000000000000000000000000000000000000000000000000000000000020000000000000000000000000000000000000000000000000000000000000000010000000000000000000000001720d605289a189c5fbd360ca2307db5c6d3fdfd0000000000000000000000000000000000000000000000000000000000000001000000000000000000000000000000000000000000000000000000000000000000000000000000000000000000000000000000000000000000000000000000010000000000000000000000000000000000000000000000000000000000000020000000000000000000000000000000000000000000000000000000000000000965786563757465282900000000000000000000000000000000000000000000000000000000000000000000000000000000000000000000000000000000000001000000000000000000000000000000000000000000000000000000000000002000000000000000000000000000000000000000000000000000000000000000000000000000000000000000000000000000000000000000000000000000000001000000000000000000000000000000000000000000000000000000000000000100000000000000000000000000000000000000000000000000000000",
              },
              {
                "soltype": {
                  "components": null,
                  "index": "0x0000000000000000000000000000000000000000000000000000000000000000",
                  "indexed": false,
                  "name": "_gasLimit",
                  "offset": 0,
                  "simple_type": {
                    "type": "uint",
                  },
                  "storage_location": "default",
                  "type": "uint256",
                },
                "value": "1920000",
              },
            ],
            "decoded_output": [],
            "from": "0xd9166833ff12a5f900ccfbf2c8b62a90f1ca1fd5",
            "from_balance": null,
            "function_code_length": 342,
            "function_code_start": 12222,
            "function_file_index": 8,
            "function_line_number": 353,
            "function_name": "_sendXDomainMessage",
            "function_op": "JUMPDEST",
            "function_pc": 4591,
            "gas": 692947,
            "gas_used": 67683,
            "hash": "",
            "input": "0x",
            "network_id": "",
            "output": "0x",
            "to": "0xd9166833ff12a5f900ccfbf2c8b62a90f1ca1fd5",
            "to_balance": null,
            "value": null,
          },
        ],
        "contract_name": "Lib_ResolvedDelegateProxy",
        "decoded_input": [
          {
            "soltype": {
              "components": null,
              "index": "0x0000000000000000000000000000000000000000000000000000000000000000",
              "indexed": false,
              "name": "_target",
              "offset": 0,
              "simple_type": {
                "type": "address",
              },
              "storage_location": "default",
              "type": "address",
            },
            "value": "0x7d9103572be58ffe99dc390e8246f02dcae6f611",
          },
          {
            "soltype": {
              "components": null,
              "index": "0x0000000000000000000000000000000000000000000000000000000000000000",
              "indexed": false,
              "name": "_message",
              "offset": 0,
              "simple_type": {
                "type": "bytes",
              },
              "storage_location": "default",
              "type": "bytes",
            },
            "value": "0xd9a4cbdf00000000000000000000000000000000000000000000000000000000000000a000000000000000000000000000000000000000000000000000000000000000e0000000000000000000000000000000000000000000000000000000000000012000000000000000000000000000000000000000000000000000000000000001a0000000000000000000000000000000000000000000000000000000000000020000000000000000000000000000000000000000000000000000000000000000010000000000000000000000001720d605289a189c5fbd360ca2307db5c6d3fdfd00000000000000000000000000000000000000000000000000000000000000010000000000000000000000000000000000000000000000000000000000000000000000000000000000000000000000000000000000000000000000000000000100000000000000000000000000000000000000000000000000000000000000200000000000000000000000000000000000000000000000000000000000000009657865637574652829000000000000000000000000000000000000000000000000000000000000000000000000000000000000000000000000000000000000010000000000000000000000000000000000000000000000000000000000000020000000000000000000000000000000000000000000000000000000000000000000000000000000000000000000000000000000000000000000000000000000010000000000000000000000000000000000000000000000000000000000000001",
          },
          {
            "soltype": {
              "components": null,
              "index": "0x0000000000000000000000000000000000000000000000000000000000000000",
              "indexed": false,
              "name": "_gasLimit",
              "offset": 0,
              "simple_type": {
                "type": "uint",
              },
              "storage_location": "default",
              "type": "uint32",
            },
            "value": 1920000,
          },
        ],
        "decoded_output": null,
        "from": "0x25ace71c97b33cc4729cf772ae268934f7ab5fa1",
        "from_balance": "0",
        "function_code_length": 695,
        "function_code_start": 4725,
        "function_file_index": 8,
        "function_line_number": 135,
        "function_name": "sendMessage",
        "function_op": "JUMPDEST",
        "function_pc": 877,
        "gas": 705003,
        "gas_used": 88706,
        "hash": "",
        "input": "0x3dbb202b0000000000000000000000007d9103572be58ffe99dc390e8246f02dcae6f611000000000000000000000000000000000000000000000000000000000000006000000000000000000000000000000000000000000000000000000000001d4c000000000000000000000000000000000000000000000000000000000000000244d9a4cbdf00000000000000000000000000000000000000000000000000000000000000a000000000000000000000000000000000000000000000000000000000000000e0000000000000000000000000000000000000000000000000000000000000012000000000000000000000000000000000000000000000000000000000000001a0000000000000000000000000000000000000000000000000000000000000020000000000000000000000000000000000000000000000000000000000000000010000000000000000000000001720d605289a189c5fbd360ca2307db5c6d3fdfd0000000000000000000000000000000000000000000000000000000000000001000000000000000000000000000000000000000000000000000000000000000000000000000000000000000000000000000000000000000000000000000000010000000000000000000000000000000000000000000000000000000000000020000000000000000000000000000000000000000000000000000000000000000965786563757465282900000000000000000000000000000000000000000000000000000000000000000000000000000000000000000000000000000000000001000000000000000000000000000000000000000000000000000000000000002000000000000000000000000000000000000000000000000000000000000000000000000000000000000000000000000000000000000000000000000000000001000000000000000000000000000000000000000000000000000000000000000100000000000000000000000000000000000000000000000000000000",
        "network_id": "",
        "output": "0x",
        "refund_gas": 11190,
        "to": "0xd9166833ff12a5f900ccfbf2c8b62a90f1ca1fd5",
        "to_balance": "0",
        "value": null,
      },
    ],
    "contract_name": "CrosschainForwarderOptimism",
    "decoded_output": null,
    "from": "0x5f5c02875a8e9b5a26fbd09040abcfdeb2aa6711",
    "from_balance": "0",
    "function_code_length": 99,
    "function_code_start": 1684,
    "function_file_index": 3,
    "function_line_number": 49,
    "function_name": "fallback",
    "function_op": "JUMPDEST",
    "function_pc": 181,
    "function_variables": [
      {
        "soltype": {
          "components": null,
          "index": "0x0000000000000000000000000000000000000000000000000000000000000000",
          "indexed": false,
          "name": "success",
          "offset": 0,
          "simple_type": {
            "type": "bool",
          },
          "storage_location": "default",
          "type": "bool",
        },
        "value": false,
      },
      {
        "soltype": {
          "components": null,
          "index": "0x0000000000000000000000000000000000000000000000000000000000000000",
          "indexed": false,
          "name": "returndata",
          "offset": 0,
          "simple_type": {
            "type": "bytes",
          },
          "storage_location": "memory",
          "type": "bytes",
        },
        "value": null,
      },
    ],
    "gas": 729833,
    "gas_used": 102451,
    "hash": "",
    "input": "0x3dbb202b0000000000000000000000007d9103572be58ffe99dc390e8246f02dcae6f611000000000000000000000000000000000000000000000000000000000000006000000000000000000000000000000000000000000000000000000000001d4c000000000000000000000000000000000000000000000000000000000000000244d9a4cbdf00000000000000000000000000000000000000000000000000000000000000a000000000000000000000000000000000000000000000000000000000000000e0000000000000000000000000000000000000000000000000000000000000012000000000000000000000000000000000000000000000000000000000000001a0000000000000000000000000000000000000000000000000000000000000020000000000000000000000000000000000000000000000000000000000000000010000000000000000000000001720d605289a189c5fbd360ca2307db5c6d3fdfd0000000000000000000000000000000000000000000000000000000000000001000000000000000000000000000000000000000000000000000000000000000000000000000000000000000000000000000000000000000000000000000000010000000000000000000000000000000000000000000000000000000000000020000000000000000000000000000000000000000000000000000000000000000965786563757465282900000000000000000000000000000000000000000000000000000000000000000000000000000000000000000000000000000000000001000000000000000000000000000000000000000000000000000000000000002000000000000000000000000000000000000000000000000000000000000000000000000000000000000000000000000000000000000000000000000000000001000000000000000000000000000000000000000000000000000000000000000100000000000000000000000000000000000000000000000000000000",
    "network_id": "",
    "output": "0x",
    "refund_gas": 11584,
    "to": "0x25ace71c97b33cc4729cf772ae268934f7ab5fa1",
    "to_balance": "0",
    "value": "0",
  },
]
`;

exports[`findSubProposals > should find polygon proposals 1`] = `
[
  {
    "absolute_position": 36373,
    "block_timestamp": "0001-01-01T00:00:00Z",
    "call_type": "CALL",
    "caller": {
      "address": "0xee56e2b3d491590b5b31738cc34d5232f378a8d5",
      "balance": "45321057772316480",
    },
    "caller_code_length": 118,
    "caller_code_start": 2003,
    "caller_file_index": 0,
    "caller_line_number": 48,
    "caller_op": "CALL",
    "caller_pc": 742,
    "calls": [
      {
        "absolute_position": 36356,
        "block_timestamp": "0001-01-01T00:00:00Z",
        "call_type": "CALL",
        "caller": {
          "address": "0xfe5e5d361b2ad62c541bab87c45a0b9b018389a2",
          "balance": "0",
        },
        "caller_code_length": 36,
        "caller_code_start": 820,
        "caller_file_index": 0,
        "caller_line_number": 31,
        "caller_op": "CALL",
        "caller_pc": 867,
        "calls": [
          {
            "absolute_position": 36259,
            "block_timestamp": "0001-01-01T00:00:00Z",
            "call_type": "JUMPDEST",
            "caller": {
              "address": "0xfe5e5d361b2ad62c541bab87c45a0b9b018389a2",
              "balance": "0",
            },
            "caller_code_length": 14,
            "caller_code_start": 4558,
            "caller_file_index": 0,
            "caller_line_number": 166,
            "caller_op": "JUMP",
            "caller_pc": 606,
            "calls": null,
            "contract_name": "StateSender",
            "decoded_input": [
              {
                "soltype": {
                  "components": null,
                  "index": "0x0000000000000000000000000000000000000000000000000000000000000000",
                  "indexed": false,
                  "name": "a",
                  "offset": 0,
                  "simple_type": {
                    "type": "uint",
                  },
                  "storage_location": "default",
                  "type": "uint256",
                },
                "value": "2669816",
              },
              {
                "soltype": {
                  "components": null,
                  "index": "0x0000000000000000000000000000000000000000000000000000000000000000",
                  "indexed": false,
                  "name": "b",
                  "offset": 0,
                  "simple_type": {
                    "type": "uint",
                  },
                  "storage_location": "default",
                  "type": "uint256",
                },
                "value": "1",
              },
            ],
            "decoded_output": [
              {
                "soltype": {
                  "components": null,
                  "index": "0x0000000000000000000000000000000000000000000000000000000000000000",
                  "indexed": false,
                  "name": "",
                  "offset": 0,
                  "simple_type": {
                    "type": "uint",
                  },
                  "storage_location": "default",
                  "type": "uint256",
                },
                "value": "2669817",
              },
            ],
            "from": "0x28e4f3a7f651294b9564800b2d01f35189a5bfbe",
            "from_balance": null,
            "function_code_length": 145,
            "function_code_start": 3326,
            "function_file_index": 0,
            "function_line_number": 118,
            "function_name": "add",
            "function_op": "JUMPDEST",
            "function_pc": 1194,
            "gas": 1402490,
            "gas_used": 59,
            "hash": "",
            "input": "0x",
            "network_id": "",
            "output": "0x",
            "to": "0x28e4f3a7f651294b9564800b2d01f35189a5bfbe",
            "to_balance": null,
            "value": null,
          },
        ],
        "contract_name": "FxRoot",
        "decoded_input": [
          {
            "soltype": {
              "components": null,
              "index": "0x0000000000000000000000000000000000000000000000000000000000000000",
              "indexed": false,
              "name": "receiver",
              "offset": 0,
              "simple_type": {
                "type": "address",
              },
              "storage_location": "default",
              "type": "address",
            },
            "value": "0x8397259c983751daf40400790063935a11afa28a",
          },
          {
            "soltype": {
              "components": null,
              "index": "0x0000000000000000000000000000000000000000000000000000000000000000",
              "indexed": false,
              "name": "data",
              "offset": 0,
              "simple_type": {
                "type": "bytes",
              },
              "storage_location": "default",
              "type": "bytes",
            },
            "value": "0x000000000000000000000000ee56e2b3d491590b5b31738cc34d5232f378a8d5000000000000000000000000dc9a35b16db4e126cfedc41322b3a36454b1f7720000000000000000000000000000000000000000000000000000000000000060000000000000000000000000000000000000000000000000000000000000024000000000000000000000000000000000000000000000000000000000000000a000000000000000000000000000000000000000000000000000000000000000e0000000000000000000000000000000000000000000000000000000000000012000000000000000000000000000000000000000000000000000000000000001a000000000000000000000000000000000000000000000000000000000000002000000000000000000000000000000000000000000000000000000000000000001000000000000000000000000e11c89144259af51385f30b699cdb334d1e1dddc00000000000000000000000000000000000000000000000000000000000000010000000000000000000000000000000000000000000000000000000000000000000000000000000000000000000000000000000000000000000000000000000100000000000000000000000000000000000000000000000000000000000000200000000000000000000000000000000000000000000000000000000000000009657865637574652829000000000000000000000000000000000000000000000000000000000000000000000000000000000000000000000000000000000000010000000000000000000000000000000000000000000000000000000000000020000000000000000000000000000000000000000000000000000000000000000000000000000000000000000000000000000000000000000000000000000000010000000000000000000000000000000000000000000000000000000000000001",
          },
        ],
        "decoded_output": null,
        "from": "0xfe5e5d361b2ad62c541bab87c45a0b9b018389a2",
        "from_balance": "0",
        "function_code_length": 204,
        "function_code_start": 4426,
        "function_file_index": 0,
        "function_line_number": 162,
        "function_name": "syncState",
        "function_op": "JUMPDEST",
        "function_pc": 491,
        "gas": 1407222,
        "gas_used": 15795,
        "hash": "",
        "input": "0x16f198310000000000000000000000008397259c983751daf40400790063935a11afa28a000000000000000000000000000000000000000000000000000000000000004000000000000000000000000000000000000000000000000000000000000002c0000000000000000000000000ee56e2b3d491590b5b31738cc34d5232f378a8d5000000000000000000000000dc9a35b16db4e126cfedc41322b3a36454b1f7720000000000000000000000000000000000000000000000000000000000000060000000000000000000000000000000000000000000000000000000000000024000000000000000000000000000000000000000000000000000000000000000a000000000000000000000000000000000000000000000000000000000000000e0000000000000000000000000000000000000000000000000000000000000012000000000000000000000000000000000000000000000000000000000000001a000000000000000000000000000000000000000000000000000000000000002000000000000000000000000000000000000000000000000000000000000000001000000000000000000000000e11c89144259af51385f30b699cdb334d1e1dddc00000000000000000000000000000000000000000000000000000000000000010000000000000000000000000000000000000000000000000000000000000000000000000000000000000000000000000000000000000000000000000000000100000000000000000000000000000000000000000000000000000000000000200000000000000000000000000000000000000000000000000000000000000009657865637574652829000000000000000000000000000000000000000000000000000000000000000000000000000000000000000000000000000000000000010000000000000000000000000000000000000000000000000000000000000020000000000000000000000000000000000000000000000000000000000000000000000000000000000000000000000000000000000000000000000000000000010000000000000000000000000000000000000000000000000000000000000001",
        "network_id": "",
        "output": "0x",
        "refund_gas": 22336,
        "to": "0x28e4f3a7f651294b9564800b2d01f35189a5bfbe",
        "to_balance": "0",
        "value": "0",
      },
    ],
    "contract_name": "CrosschainForwarderPolygon",
    "decoded_input": [
      {
        "soltype": {
          "components": null,
          "index": "0x0000000000000000000000000000000000000000000000000000000000000000",
          "indexed": false,
          "name": "_receiver",
          "offset": 0,
          "simple_type": {
            "type": "address",
          },
          "storage_location": "default",
          "type": "address",
        },
        "value": "0xdc9a35b16db4e126cfedc41322b3a36454b1f772",
      },
      {
        "soltype": {
          "components": null,
          "index": "0x0000000000000000000000000000000000000000000000000000000000000000",
          "indexed": false,
          "name": "_data",
          "offset": 0,
          "simple_type": {
            "type": "bytes",
          },
          "storage_location": "default",
          "type": "bytes",
        },
        "value": "0x00000000000000000000000000000000000000000000000000000000000000a000000000000000000000000000000000000000000000000000000000000000e0000000000000000000000000000000000000000000000000000000000000012000000000000000000000000000000000000000000000000000000000000001a000000000000000000000000000000000000000000000000000000000000002000000000000000000000000000000000000000000000000000000000000000001000000000000000000000000e11c89144259af51385f30b699cdb334d1e1dddc00000000000000000000000000000000000000000000000000000000000000010000000000000000000000000000000000000000000000000000000000000000000000000000000000000000000000000000000000000000000000000000000100000000000000000000000000000000000000000000000000000000000000200000000000000000000000000000000000000000000000000000000000000009657865637574652829000000000000000000000000000000000000000000000000000000000000000000000000000000000000000000000000000000000000010000000000000000000000000000000000000000000000000000000000000020000000000000000000000000000000000000000000000000000000000000000000000000000000000000000000000000000000000000000000000000000000010000000000000000000000000000000000000000000000000000000000000001",
      },
    ],
    "decoded_output": null,
    "from": "0x158a6bc04f0828318821bae797f50b0a1299d45b",
    "from_balance": "0",
    "function_code_length": 208,
    "function_code_start": 655,
    "function_file_index": 0,
    "function_line_number": 29,
    "function_name": "sendMessageToChild",
    "function_op": "JUMPDEST",
    "function_pc": 444,
    "gas": 1439339,
    "gas_used": 25624,
    "hash": "",
    "input": "0xb4720477000000000000000000000000dc9a35b16db4e126cfedc41322b3a36454b1f7720000000000000000000000000000000000000000000000000000000000000040000000000000000000000000000000000000000000000000000000000000024000000000000000000000000000000000000000000000000000000000000000a000000000000000000000000000000000000000000000000000000000000000e0000000000000000000000000000000000000000000000000000000000000012000000000000000000000000000000000000000000000000000000000000001a000000000000000000000000000000000000000000000000000000000000002000000000000000000000000000000000000000000000000000000000000000001000000000000000000000000e11c89144259af51385f30b699cdb334d1e1dddc00000000000000000000000000000000000000000000000000000000000000010000000000000000000000000000000000000000000000000000000000000000000000000000000000000000000000000000000000000000000000000000000100000000000000000000000000000000000000000000000000000000000000200000000000000000000000000000000000000000000000000000000000000009657865637574652829000000000000000000000000000000000000000000000000000000000000000000000000000000000000000000000000000000000000010000000000000000000000000000000000000000000000000000000000000020000000000000000000000000000000000000000000000000000000000000000000000000000000000000000000000000000000000000000000000000000000010000000000000000000000000000000000000000000000000000000000000001",
    "network_id": "",
    "output": "0x",
    "refund_gas": 22846,
    "to": "0xfe5e5d361b2ad62c541bab87c45a0b9b018389a2",
    "to_balance": "0",
    "value": "0",
  },
]
`;
